{
  "_format": "hh-sol-artifact-1",
  "contractName": "VerifiedUserSBT",
  "sourceName": "contracts/VerifiedUserSBT.sol",
  "abi": [
    {
      "inputs": [],
      "stateMutability": "nonpayable",
      "type": "constructor"
    },
    {
      "inputs": [
        {
          "internalType": "address",
          "name": "sender",
          "type": "address"
        },
        {
          "internalType": "uint256",
          "name": "tokenId",
          "type": "uint256"
        },
        {
          "internalType": "address",
          "name": "owner",
          "type": "address"
        }
      ],
      "name": "ERC721IncorrectOwner",
      "type": "error"
    },
    {
      "inputs": [
        {
          "internalType": "address",
          "name": "operator",
          "type": "address"
        },
        {
          "internalType": "uint256",
          "name": "tokenId",
          "type": "uint256"
        }
      ],
      "name": "ERC721InsufficientApproval",
      "type": "error"
    },
    {
      "inputs": [
        {
          "internalType": "address",
          "name": "approver",
          "type": "address"
        }
      ],
      "name": "ERC721InvalidApprover",
      "type": "error"
    },
    {
      "inputs": [
        {
          "internalType": "address",
          "name": "operator",
          "type": "address"
        }
      ],
      "name": "ERC721InvalidOperator",
      "type": "error"
    },
    {
      "inputs": [
        {
          "internalType": "address",
          "name": "owner",
          "type": "address"
        }
      ],
      "name": "ERC721InvalidOwner",
      "type": "error"
    },
    {
      "inputs": [
        {
          "internalType": "address",
          "name": "receiver",
          "type": "address"
        }
      ],
      "name": "ERC721InvalidReceiver",
      "type": "error"
    },
    {
      "inputs": [
        {
          "internalType": "address",
          "name": "sender",
          "type": "address"
        }
      ],
      "name": "ERC721InvalidSender",
      "type": "error"
    },
    {
      "inputs": [
        {
          "internalType": "uint256",
          "name": "tokenId",
          "type": "uint256"
        }
      ],
      "name": "ERC721NonexistentToken",
      "type": "error"
    },
    {
      "inputs": [
        {
          "internalType": "address",
          "name": "owner",
          "type": "address"
        }
      ],
      "name": "OwnableInvalidOwner",
      "type": "error"
    },
    {
      "inputs": [
        {
          "internalType": "address",
          "name": "account",
          "type": "address"
        }
      ],
      "name": "OwnableUnauthorizedAccount",
      "type": "error"
    },
    {
      "anonymous": false,
      "inputs": [
        {
          "indexed": true,
          "internalType": "address",
          "name": "owner",
          "type": "address"
        },
        {
          "indexed": true,
          "internalType": "address",
          "name": "approved",
          "type": "address"
        },
        {
          "indexed": true,
          "internalType": "uint256",
          "name": "tokenId",
          "type": "uint256"
        }
      ],
      "name": "Approval",
      "type": "event"
    },
    {
      "anonymous": false,
      "inputs": [
        {
          "indexed": true,
          "internalType": "address",
          "name": "owner",
          "type": "address"
        },
        {
          "indexed": true,
          "internalType": "address",
          "name": "operator",
          "type": "address"
        },
        {
          "indexed": false,
          "internalType": "bool",
          "name": "approved",
          "type": "bool"
        }
      ],
      "name": "ApprovalForAll",
      "type": "event"
    },
    {
      "anonymous": false,
      "inputs": [
        {
          "indexed": true,
          "internalType": "address",
          "name": "previousOwner",
          "type": "address"
        },
        {
          "indexed": true,
          "internalType": "address",
          "name": "newOwner",
          "type": "address"
        }
      ],
      "name": "OwnershipTransferred",
      "type": "event"
    },
    {
      "anonymous": false,
      "inputs": [
        {
          "indexed": true,
          "internalType": "address",
          "name": "from",
          "type": "address"
        },
        {
          "indexed": true,
          "internalType": "address",
          "name": "to",
          "type": "address"
        },
        {
          "indexed": true,
          "internalType": "uint256",
          "name": "tokenId",
          "type": "uint256"
        }
      ],
      "name": "Transfer",
      "type": "event"
    },
    {
      "inputs": [
        {
          "internalType": "address",
          "name": "to",
          "type": "address"
        },
        {
          "internalType": "uint256",
          "name": "tokenId",
          "type": "uint256"
        }
      ],
      "name": "approve",
      "outputs": [],
      "stateMutability": "nonpayable",
      "type": "function"
    },
    {
      "inputs": [
        {
          "internalType": "address",
          "name": "owner",
          "type": "address"
        }
      ],
      "name": "balanceOf",
      "outputs": [
        {
          "internalType": "uint256",
          "name": "",
          "type": "uint256"
        }
      ],
      "stateMutability": "view",
      "type": "function"
    },
    {
      "inputs": [
        {
          "internalType": "address",
          "name": "user",
          "type": "address"
        }
      ],
      "name": "checkVerified",
      "outputs": [
        {
          "internalType": "bool",
          "name": "",
          "type": "bool"
        }
      ],
      "stateMutability": "view",
      "type": "function"
    },
    {
      "inputs": [
        {
          "internalType": "uint256",
          "name": "tokenId",
          "type": "uint256"
        }
      ],
      "name": "getApproved",
      "outputs": [
        {
          "internalType": "address",
          "name": "",
          "type": "address"
        }
      ],
      "stateMutability": "view",
      "type": "function"
    },
    {
      "inputs": [
        {
          "internalType": "address",
          "name": "owner",
          "type": "address"
        },
        {
          "internalType": "address",
          "name": "operator",
          "type": "address"
        }
      ],
      "name": "isApprovedForAll",
      "outputs": [
        {
          "internalType": "bool",
          "name": "",
          "type": "bool"
        }
      ],
      "stateMutability": "view",
      "type": "function"
    },
    {
      "inputs": [
        {
          "internalType": "address",
          "name": "",
          "type": "address"
        }
      ],
      "name": "isVerified",
      "outputs": [
        {
          "internalType": "bool",
          "name": "",
          "type": "bool"
        }
      ],
      "stateMutability": "view",
      "type": "function"
    },
    {
      "inputs": [
        {
          "internalType": "address",
          "name": "to",
          "type": "address"
        }
      ],
      "name": "mint",
      "outputs": [],
      "stateMutability": "nonpayable",
      "type": "function"
    },
    {
      "inputs": [],
      "name": "name",
      "outputs": [
        {
          "internalType": "string",
          "name": "",
          "type": "string"
        }
      ],
      "stateMutability": "view",
      "type": "function"
    },
    {
      "inputs": [],
      "name": "owner",
      "outputs": [
        {
          "internalType": "address",
          "name": "",
          "type": "address"
        }
      ],
      "stateMutability": "view",
      "type": "function"
    },
    {
      "inputs": [
        {
          "internalType": "uint256",
          "name": "tokenId",
          "type": "uint256"
        }
      ],
      "name": "ownerOf",
      "outputs": [
        {
          "internalType": "address",
          "name": "",
          "type": "address"
        }
      ],
      "stateMutability": "view",
      "type": "function"
    },
    {
      "inputs": [],
      "name": "renounceOwnership",
      "outputs": [],
      "stateMutability": "nonpayable",
      "type": "function"
    },
    {
      "inputs": [
        {
          "internalType": "address",
          "name": "from",
          "type": "address"
        },
        {
          "internalType": "address",
          "name": "to",
          "type": "address"
        },
        {
          "internalType": "uint256",
          "name": "tokenId",
          "type": "uint256"
        }
      ],
      "name": "safeTransferFrom",
      "outputs": [],
      "stateMutability": "nonpayable",
      "type": "function"
    },
    {
      "inputs": [
        {
          "internalType": "address",
          "name": "from",
          "type": "address"
        },
        {
          "internalType": "address",
          "name": "to",
          "type": "address"
        },
        {
          "internalType": "uint256",
          "name": "tokenId",
          "type": "uint256"
        },
        {
          "internalType": "bytes",
          "name": "data",
          "type": "bytes"
        }
      ],
      "name": "safeTransferFrom",
      "outputs": [],
      "stateMutability": "nonpayable",
      "type": "function"
    },
    {
      "inputs": [
        {
          "internalType": "address",
          "name": "operator",
          "type": "address"
        },
        {
          "internalType": "bool",
          "name": "approved",
          "type": "bool"
        }
      ],
      "name": "setApprovalForAll",
      "outputs": [],
      "stateMutability": "nonpayable",
      "type": "function"
    },
    {
      "inputs": [
        {
          "internalType": "bytes4",
          "name": "interfaceId",
          "type": "bytes4"
        }
      ],
      "name": "supportsInterface",
      "outputs": [
        {
          "internalType": "bool",
          "name": "",
          "type": "bool"
        }
      ],
      "stateMutability": "view",
      "type": "function"
    },
    {
      "inputs": [],
      "name": "symbol",
      "outputs": [
        {
          "internalType": "string",
          "name": "",
          "type": "string"
        }
      ],
      "stateMutability": "view",
      "type": "function"
    },
    {
      "inputs": [
        {
          "internalType": "uint256",
          "name": "tokenId",
          "type": "uint256"
        }
      ],
      "name": "tokenURI",
      "outputs": [
        {
          "internalType": "string",
          "name": "",
          "type": "string"
        }
      ],
      "stateMutability": "view",
      "type": "function"
    },
    {
      "inputs": [
        {
          "internalType": "address",
          "name": "from",
          "type": "address"
        },
        {
          "internalType": "address",
          "name": "to",
          "type": "address"
        },
        {
          "internalType": "uint256",
          "name": "tokenId",
          "type": "uint256"
        }
      ],
      "name": "transferFrom",
      "outputs": [],
      "stateMutability": "nonpayable",
      "type": "function"
    },
    {
      "inputs": [
        {
          "internalType": "address",
          "name": "newOwner",
          "type": "address"
        }
      ],
      "name": "transferOwnership",
      "outputs": [],
      "stateMutability": "nonpayable",
      "type": "function"
    }
  ],
  "bytecode": "0x60806040523480156200001157600080fd5b50336040518060400160405280600f81526020016e15995c9a599a5959155cd95c94d095608a1b81525060405180604001604052806005815260200164159554d09560da1b81525081600090816200006a9190620001b6565b506001620000798282620001b6565b5050506001600160a01b038116620000ab57604051631e4fbdf760e01b81526000600482015260240160405180910390fd5b620000b681620000bd565b5062000282565b600680546001600160a01b038381166001600160a01b0319831681179093556040519116919082907f8be0079c531659141344cd1fd0a4f28419497f9722a3daafe3b4186f6b6457e090600090a35050565b634e487b7160e01b600052604160045260246000fd5b600181811c908216806200013a57607f821691505b6020821081036200015b57634e487b7160e01b600052602260045260246000fd5b50919050565b601f821115620001b1576000816000526020600020601f850160051c810160208610156200018c5750805b601f850160051c820191505b81811015620001ad5782815560010162000198565b5050505b505050565b81516001600160401b03811115620001d257620001d26200010f565b620001ea81620001e3845462000125565b8462000161565b602080601f831160018114620002225760008415620002095750858301515b600019600386901b1c1916600185901b178555620001ad565b600085815260208120601f198616915b82811015620002535788860151825594840194600190910190840162000232565b5085821015620002725787850151600019600388901b60f8161c191681555b5050505050600190811b01905550565b61128a80620002926000396000f3fe608060405234801561001057600080fd5b50600436106101215760003560e01c806370a08231116100ad578063b88d4fde11610071578063b88d4fde14610270578063b9209e3314610283578063c87b56dd146102a6578063e985e9c5146102b9578063f2fde38b146102cc57600080fd5b806370a082311461021b578063715018a61461023c5780638da5cb5b1461024457806395d89b4114610255578063a22cb4651461025d57600080fd5b806323b872dd116100f457806323b872dd146101a357806342842e0e146101b65780636352211e146101c95780636a627842146101dc5780636cc8c590146101ef57600080fd5b806301ffc9a71461012657806306fdde031461014e578063081812fc14610163578063095ea7b31461018e575b600080fd5b610139610134366004610ed3565b6102df565b60405190151581526020015b60405180910390f35b610156610331565b6040516101459190610f40565b610176610171366004610f53565b6103c3565b6040516001600160a01b039091168152602001610145565b6101a161019c366004610f88565b6103ec565b005b6101a16101b1366004610fb2565b6103fb565b6101a16101c4366004610fb2565b61048b565b6101766101d7366004610f53565b6104ab565b6101a16101ea366004610fee565b6104b6565b6101396101fd366004610fee565b6001600160a01b031660009081526008602052604090205460ff1690565b61022e610229366004610fee565b610564565b604051908152602001610145565b6101a16105ac565b6006546001600160a01b0316610176565b6101566105c0565b6101a161026b366004611009565b6105cf565b6101a161027e36600461105b565b6105da565b610139610291366004610fee565b60086020526000908152604090205460ff1681565b6101566102b4366004610f53565b6105f2565b6101396102c7366004611137565b610667565b6101a16102da366004610fee565b610695565b60006001600160e01b031982166380ac58cd60e01b148061031057506001600160e01b03198216635b5e139f60e01b145b8061032b57506301ffc9a760e01b6001600160e01b03198316145b92915050565b6060600080546103409061116a565b80601f016020809104026020016040519081016040528092919081815260200182805461036c9061116a565b80156103b95780601f1061038e576101008083540402835291602001916103b9565b820191906000526020600020905b81548152906001019060200180831161039c57829003601f168201915b5050505050905090565b60006103ce826106d3565b506000828152600460205260409020546001600160a01b031661032b565b6103f782823361070c565b5050565b6001600160a01b03821661042a57604051633250574960e11b8152600060048201526024015b60405180910390fd5b6000610437838333610719565b9050836001600160a01b0316816001600160a01b031614610485576040516364283d7b60e01b81526001600160a01b0380861660048301526024820184905282166044820152606401610421565b50505050565b6104a6838383604051806020016040528060008152506105da565b505050565b600061032b826106d3565b6104be6107a9565b6001600160a01b03811660009081526008602052604090205460ff161561051f5760405162461bcd60e51b8152602060048201526015602482015274155cd95c88185b1c9958591e481d995c9a599a5959605a1b6044820152606401610421565b6007805490600061052f836111a4565b9190505550610540816007546107d6565b6001600160a01b03166000908152600860205260409020805460ff19166001179055565b60006001600160a01b038216610590576040516322718ad960e21b815260006004820152602401610421565b506001600160a01b031660009081526003602052604090205490565b6105b46107a9565b6105be60006107f0565b565b6060600180546103409061116a565b6103f7338383610842565b6105e58484846103fb565b61048533858585856108e1565b60606105fd826106d3565b50600061061560408051602081019091526000815290565b905060008151116106355760405180602001604052806000815250610660565b8061063f84610a0c565b6040516020016106509291906111cb565b6040516020818303038152906040525b9392505050565b6001600160a01b03918216600090815260056020908152604080832093909416825291909152205460ff1690565b61069d6107a9565b6001600160a01b0381166106c757604051631e4fbdf760e01b815260006004820152602401610421565b6106d0816107f0565b50565b6000818152600260205260408120546001600160a01b03168061032b57604051637e27328960e01b815260048101849052602401610421565b6104a68383836001610a9f565b6000828152600260205260408120546001600160a01b03908116908516158061074957506001600160a01b038116155b6107955760405162461bcd60e51b815260206004820152601a60248201527f5342543a205472616e7366657273206e6f7420616c6c6f7765640000000000006044820152606401610421565b6107a0858585610ba5565b95945050505050565b6006546001600160a01b031633146105be5760405163118cdaa760e01b8152336004820152602401610421565b6103f7828260405180602001604052806000815250610c9e565b600680546001600160a01b038381166001600160a01b0319831681179093556040519116919082907f8be0079c531659141344cd1fd0a4f28419497f9722a3daafe3b4186f6b6457e090600090a35050565b6001600160a01b03821661087457604051630b61174360e31b81526001600160a01b0383166004820152602401610421565b6001600160a01b03838116600081815260056020908152604080832094871680845294825291829020805460ff191686151590811790915591519182527f17307eab39ab6107e8899845ad3d59bd9653f200f220920489ca2b5937696c31910160405180910390a3505050565b6001600160a01b0383163b15610a0557604051630a85bd0160e11b81526001600160a01b0384169063150b7a02906109239088908890879087906004016111fa565b6020604051808303816000875af192505050801561095e575060408051601f3d908101601f1916820190925261095b91810190611237565b60015b6109c7573d80801561098c576040519150601f19603f3d011682016040523d82523d6000602084013e610991565b606091505b5080516000036109bf57604051633250574960e11b81526001600160a01b0385166004820152602401610421565b805160208201fd5b6001600160e01b03198116630a85bd0160e11b14610a0357604051633250574960e11b81526001600160a01b0385166004820152602401610421565b505b5050505050565b60606000610a1983610cb6565b600101905060008167ffffffffffffffff811115610a3957610a39611045565b6040519080825280601f01601f191660200182016040528015610a63576020820181803683370190505b5090508181016020015b600019016f181899199a1a9b1b9c1cb0b131b232b360811b600a86061a8153600a8504945084610a6d57509392505050565b8080610ab357506001600160a01b03821615155b15610b75576000610ac3846106d3565b90506001600160a01b03831615801590610aef5750826001600160a01b0316816001600160a01b031614155b8015610b025750610b008184610667565b155b15610b2b5760405163a9fbf51f60e01b81526001600160a01b0384166004820152602401610421565b8115610b735783856001600160a01b0316826001600160a01b03167f8c5be1e5ebec7d5bd14f71427d1e84f3dd0314c0f7b2291e5b200ac8c7c3b92560405160405180910390a45b505b5050600090815260046020526040902080546001600160a01b0319166001600160a01b0392909216919091179055565b6000828152600260205260408120546001600160a01b0390811690831615610bd257610bd2818486610d8e565b6001600160a01b03811615610c1057610bef600085600080610a9f565b6001600160a01b038116600090815260036020526040902080546000190190555b6001600160a01b03851615610c3f576001600160a01b0385166000908152600360205260409020805460010190555b60008481526002602052604080822080546001600160a01b0319166001600160a01b0389811691821790925591518793918516917fddf252ad1be2c89b69c2b068fc378daa952ba7f163c4a11628f55a4df523b3ef91a4949350505050565b610ca88383610df2565b6104a63360008585856108e1565b60008072184f03e93ff9f4daa797ed6e38ed64bf6a1f0160401b8310610cf55772184f03e93ff9f4daa797ed6e38ed64bf6a1f0160401b830492506040015b6d04ee2d6d415b85acef81000000008310610d21576d04ee2d6d415b85acef8100000000830492506020015b662386f26fc100008310610d3f57662386f26fc10000830492506010015b6305f5e1008310610d57576305f5e100830492506008015b6127108310610d6b57612710830492506004015b60648310610d7d576064830492506002015b600a831061032b5760010192915050565b610d99838383610e57565b6104a6576001600160a01b038316610dc757604051637e27328960e01b815260048101829052602401610421565b60405163177e802f60e01b81526001600160a01b038316600482015260248101829052604401610421565b6001600160a01b038216610e1c57604051633250574960e11b815260006004820152602401610421565b6000610e2a83836000610719565b90506001600160a01b038116156104a6576040516339e3563760e11b815260006004820152602401610421565b60006001600160a01b03831615801590610eb55750826001600160a01b0316846001600160a01b03161480610e915750610e918484610667565b80610eb557506000828152600460205260409020546001600160a01b038481169116145b949350505050565b6001600160e01b0319811681146106d057600080fd5b600060208284031215610ee557600080fd5b813561066081610ebd565b60005b83811015610f0b578181015183820152602001610ef3565b50506000910152565b60008151808452610f2c816020860160208601610ef0565b601f01601f19169290920160200192915050565b6020815260006106606020830184610f14565b600060208284031215610f6557600080fd5b5035919050565b80356001600160a01b0381168114610f8357600080fd5b919050565b60008060408385031215610f9b57600080fd5b610fa483610f6c565b946020939093013593505050565b600080600060608486031215610fc757600080fd5b610fd084610f6c565b9250610fde60208501610f6c565b9150604084013590509250925092565b60006020828403121561100057600080fd5b61066082610f6c565b6000806040838503121561101c57600080fd5b61102583610f6c565b91506020830135801515811461103a57600080fd5b809150509250929050565b634e487b7160e01b600052604160045260246000fd5b6000806000806080858703121561107157600080fd5b61107a85610f6c565b935061108860208601610f6c565b925060408501359150606085013567ffffffffffffffff808211156110ac57600080fd5b818701915087601f8301126110c057600080fd5b8135818111156110d2576110d2611045565b604051601f8201601f19908116603f011681019083821181831017156110fa576110fa611045565b816040528281528a602084870101111561111357600080fd5b82602086016020830137600060208483010152809550505050505092959194509250565b6000806040838503121561114a57600080fd5b61115383610f6c565b915061116160208401610f6c565b90509250929050565b600181811c9082168061117e57607f821691505b60208210810361119e57634e487b7160e01b600052602260045260246000fd5b50919050565b6000600182016111c457634e487b7160e01b600052601160045260246000fd5b5060010190565b600083516111dd818460208801610ef0565b8351908301906111f1818360208801610ef0565b01949350505050565b6001600160a01b038581168252841660208201526040810183905260806060820181905260009061122d90830184610f14565b9695505050505050565b60006020828403121561124957600080fd5b815161066081610ebd56fea2646970667358221220a6c2efcc6d1da3345eabdb5d5a0cc2ccfa674018ae1c81affa0be7eb238afb0564736f6c63430008180033",
  "linkReferences": {},
  "deployedLinkReferences": {}
}